:020000020000FC
:0200000032C00C
:0200040030C00A
:020008002EC008
:02000C002CC006
:020010002AC004
:0200140028C002
:0200180026C000
:02001C0024C0FE
:0200200022C0FC
:0200240020C0FA
:020028001EC0F8
:02002C001CC0F6
:020030001AC0F4
:0200340018C0F2
:0200380016C0F0
:02003C0014C0EE
:0200400012C0EC
:0200440010C0EA
:020048000EC0E8
:02004C000CC0E6
:020050000AC0E4
:0200540008C0E2
:0200580006C0E0
:02005C0004C0DE
:0200600002C0DC
:1000640000C00FEF0DBF08E00EBFECECF0E007E6B8
:100074000093C40000E00093C50000E8009326004C
:1000840002E00093250008E90093C10006E0009314
:10009400C20078941591103021F004D01093C6005A
:1000A400F9CFFFCF0091C00005FFFCCF1093C6002D
:1000B40008951F931FB71F931091C6000E94540008
:1000C4001F911FBF1F911895507265737320616E45
:1000D40079206B657920746F207374617274207455
:0C00E400686520636C6F636B2E200000C9
:00000001FF
